:100000000C9434000C943E000C943E000C943E0082
:100010000C943E000C943E000C943E000C943E0068
:100020000C943E000C943E000C943E000C943E0058
:100030000C943E000C943E000C943E000C943E0048
:100040000C943E000C943E000C943E000C943E0038
:100050000C943E000C943E000C943E000C943E0028
:100060000C943E000C943E0011241FBECFEFD8E04C
:10007000DEBFCDBF0E9476000C94CD000C94000032
:100080008AB188668AB9E0EBF0E01082A1EBB0E0BB
:100090001C921092B4008081806A8083808183608A
:1000A00080838C9181608C9314BC15BC17BC84B583
:1000B000806A84BD84B5836084BD85B5816085BD5B
:1000C0000895853049F0863041F0833061F017BCE7
:1000D00018BC1092B400089568BD67BD17BC18BC69
:1000E0001092B40008956093B40008958AB18866B0
:1000F0008AB92098289A80E090E0189B12C083303B
:10010000910509F43FC08430910504F581309105D3
:10011000E9F182309105F4F15E985D985B9A189947
:10012000EECF2FEF33EF41E0215030404040E1F778
:1001300000C00000189BFECF019688309105FCF2AC
:100140005E9A5D985B9880E090E0D7CF853091050E
:10015000A9F08530910574F08630910539F087302B
:10016000910559F65E985D985B98C7CF5E9A5D9A47
:100170005B9AC3CF5E9A5B9A5D98BFCF5D9A5B9A9C
:100180005E98BBCF5E9A5D9A5B98B7CF5E985B989E
:0E0190005D9AB3CF0097A1F2B0CFF894FFCFE5
:00000001FF
